{
  "contractName": "Health",
  "abi": [
    {
      "inputs": [
        {
          "internalType": "address",
          "name": "",
          "type": "address"
        }
      ],
      "name": "DOCTORS",
      "outputs": [
        {
          "internalType": "address",
          "name": "addr",
          "type": "address"
        },
        {
          "internalType": "string",
          "name": "name",
          "type": "string"
        },
        {
          "internalType": "string",
          "name": "email",
          "type": "string"
        },
        {
          "internalType": "string",
          "name": "hospital",
          "type": "string"
        },
        {
          "internalType": "string",
          "name": "specialization",
          "type": "string"
        },
        {
          "internalType": "uint256",
          "name": "age",
          "type": "uint256"
        }
      ],
      "stateMutability": "view",
      "type": "function",
      "constant": true
    },
    {
      "inputs": [
        {
          "internalType": "address",
          "name": "",
          "type": "address"
        }
      ],
      "name": "PATIENTS",
      "outputs": [
        {
          "internalType": "string",
          "name": "aadhar",
          "type": "string"
        },
        {
          "internalType": "string",
          "name": "name",
          "type": "string"
        },
        {
          "internalType": "string",
          "name": "email",
          "type": "string"
        },
        {
          "internalType": "uint256",
          "name": "age",
          "type": "uint256"
        },
        {
          "internalType": "uint256",
          "name": "recordSize",
          "type": "uint256"
        }
      ],
      "stateMutability": "view",
      "type": "function",
      "constant": true
    },
    {
      "inputs": [
        {
          "internalType": "address",
          "name": "",
          "type": "address"
        },
        {
          "internalType": "uint256",
          "name": "",
          "type": "uint256"
        }
      ],
      "name": "PHARMACY",
      "outputs": [
        {
          "internalType": "string",
          "name": "date",
          "type": "string"
        },
        {
          "internalType": "address",
          "name": "doctor",
          "type": "address"
        },
        {
          "internalType": "string",
          "name": "data",
          "type": "string"
        },
        {
          "internalType": "string",
          "name": "status",
          "type": "string"
        }
      ],
      "stateMutability": "view",
      "type": "function",
      "constant": true
    },
    {
      "inputs": [],
      "name": "doctorCount",
      "outputs": [
        {
          "internalType": "uint256",
          "name": "",
          "type": "uint256"
        }
      ],
      "stateMutability": "view",
      "type": "function",
      "constant": true
    },
    {
      "inputs": [],
      "name": "patientCount",
      "outputs": [
        {
          "internalType": "uint256",
          "name": "",
          "type": "uint256"
        }
      ],
      "stateMutability": "view",
      "type": "function",
      "constant": true
    },
    {
      "inputs": [
        {
          "internalType": "string",
          "name": "str1",
          "type": "string"
        },
        {
          "internalType": "string",
          "name": "str2",
          "type": "string"
        }
      ],
      "name": "compare",
      "outputs": [
        {
          "internalType": "bool",
          "name": "",
          "type": "bool"
        }
      ],
      "stateMutability": "pure",
      "type": "function",
      "constant": true
    },
    {
      "inputs": [
        {
          "internalType": "address",
          "name": "_addr",
          "type": "address"
        },
        {
          "internalType": "string",
          "name": "_name",
          "type": "string"
        },
        {
          "internalType": "string",
          "name": "_email",
          "type": "string"
        },
        {
          "internalType": "string",
          "name": "_hospital",
          "type": "string"
        },
        {
          "internalType": "string",
          "name": "_special",
          "type": "string"
        },
        {
          "internalType": "uint256",
          "name": "_age",
          "type": "uint256"
        },
        {
          "internalType": "string",
          "name": "_password",
          "type": "string"
        }
      ],
      "name": "add_doctor",
      "outputs": [],
      "stateMutability": "nonpayable",
      "type": "function"
    },
    {
      "inputs": [
        {
          "internalType": "address",
          "name": "_addr",
          "type": "address"
        },
        {
          "internalType": "string",
          "name": "_password",
          "type": "string"
        }
      ],
      "name": "add_pharmacy",
      "outputs": [],
      "stateMutability": "nonpayable",
      "type": "function"
    },
    {
      "inputs": [
        {
          "internalType": "string",
          "name": "_aadhar",
          "type": "string"
        },
        {
          "internalType": "string",
          "name": "_name",
          "type": "string"
        },
        {
          "internalType": "string",
          "name": "_email",
          "type": "string"
        },
        {
          "internalType": "uint256",
          "name": "_age",
          "type": "uint256"
        },
        {
          "internalType": "string",
          "name": "_password",
          "type": "string"
        }
      ],
      "name": "add_patient",
      "outputs": [],
      "stateMutability": "nonpayable",
      "type": "function"
    },
    {
      "inputs": [],
      "name": "get_addressKey",
      "outputs": [
        {
          "internalType": "address",
          "name": "",
          "type": "address"
        },
        {
          "internalType": "string",
          "name": "",
          "type": "string"
        }
      ],
      "stateMutability": "view",
      "type": "function",
      "constant": true
    },
    {
      "inputs": [],
      "name": "getPassword",
      "outputs": [
        {
          "internalType": "string",
          "name": "",
          "type": "string"
        }
      ],
      "stateMutability": "view",
      "type": "function",
      "constant": true
    },
    {
      "inputs": [],
      "name": "getRole",
      "outputs": [
        {
          "internalType": "uint256",
          "name": "",
          "type": "uint256"
        }
      ],
      "stateMutability": "view",
      "type": "function",
      "constant": true
    },
    {
      "inputs": [],
      "name": "get_existing_aadhars",
      "outputs": [
        {
          "internalType": "string[]",
          "name": "",
          "type": "string[]"
        }
      ],
      "stateMutability": "view",
      "type": "function",
      "constant": true
    },
    {
      "inputs": [
        {
          "internalType": "string",
          "name": "_password",
          "type": "string"
        }
      ],
      "name": "login",
      "outputs": [
        {
          "internalType": "uint256",
          "name": "",
          "type": "uint256"
        }
      ],
      "stateMutability": "view",
      "type": "function",
      "constant": true
    },
    {
      "inputs": [
        {
          "internalType": "address",
          "name": "_addr",
          "type": "address"
        }
      ],
      "name": "get_patient",
      "outputs": [
        {
          "internalType": "string",
          "name": "",
          "type": "string"
        },
        {
          "internalType": "uint256",
          "name": "",
          "type": "uint256"
        },
        {
          "internalType": "string",
          "name": "email",
          "type": "string"
        }
      ],
      "stateMutability": "view",
      "type": "function",
      "constant": true
    },
    {
      "inputs": [
        {
          "internalType": "address",
          "name": "_addr",
          "type": "address"
        }
      ],
      "name": "get_doctor",
      "outputs": [
        {
          "internalType": "address",
          "name": "",
          "type": "address"
        },
        {
          "internalType": "string",
          "name": "",
          "type": "string"
        },
        {
          "internalType": "string",
          "name": "",
          "type": "string"
        },
        {
          "internalType": "string",
          "name": "",
          "type": "string"
        },
        {
          "internalType": "string",
          "name": "",
          "type": "string"
        },
        {
          "internalType": "uint256",
          "name": "",
          "type": "uint256"
        }
      ],
      "stateMutability": "view",
      "type": "function",
      "constant": true
    },
    {
      "inputs": [
        {
          "internalType": "address",
          "name": "addr",
          "type": "address"
        }
      ],
      "name": "permit_access",
      "outputs": [],
      "stateMutability": "payable",
      "type": "function",
      "payable": true
    },
    {
      "inputs": [
        {
          "internalType": "address",
          "name": "daddr",
          "type": "address"
        }
      ],
      "name": "revoke_access",
      "outputs": [],
      "stateMutability": "payable",
      "type": "function",
      "payable": true
    },
    {
      "inputs": [],
      "name": "get_permitted_doctors",
      "outputs": [
        {
          "internalType": "address[]",
          "name": "",
          "type": "address[]"
        }
      ],
      "stateMutability": "view",
      "type": "function",
      "constant": true
    },
    {
      "inputs": [],
      "name": "get_accessible_patients",
      "outputs": [
        {
          "internalType": "address[]",
          "name": "",
          "type": "address[]"
        }
      ],
      "stateMutability": "view",
      "type": "function",
      "constant": true
    },
    {
      "inputs": [
        {
          "internalType": "address",
          "name": "patientAddr",
          "type": "address"
        },
        {
          "internalType": "string",
          "name": "_date",
          "type": "string"
        },
        {
          "internalType": "string",
          "name": "_diagnosis",
          "type": "string"
        },
        {
          "internalType": "string",
          "name": "_description",
          "type": "string"
        },
        {
          "internalType": "string",
          "name": "_prescription",
          "type": "string"
        },
        {
          "internalType": "string[]",
          "name": "_files",
          "type": "string[]"
        }
      ],
      "name": "add_patient_record",
      "outputs": [],
      "stateMutability": "nonpayable",
      "type": "function"
    },
    {
      "inputs": [
        {
          "internalType": "address",
          "name": "patientAddr",
          "type": "address"
        }
      ],
      "name": "get_patient_records",
      "outputs": [
        {
          "components": [
            {
              "internalType": "string",
              "name": "date",
              "type": "string"
            },
            {
              "internalType": "address",
              "name": "doctor",
              "type": "address"
            },
            {
              "internalType": "string",
              "name": "diagnosis",
              "type": "string"
            },
            {
              "internalType": "string",
              "name": "description",
              "type": "string"
            },
            {
              "internalType": "string",
              "name": "prescription",
              "type": "string"
            },
            {
              "internalType": "string[]",
              "name": "files",
              "type": "string[]"
            }
          ],
          "internalType": "struct Health.record[]",
          "name": "",
          "type": "tuple[]"
        }
      ],
      "stateMutability": "view",
      "type": "function",
      "constant": true
    },
    {
      "inputs": [],
      "name": "getAllDoctors",
      "outputs": [
        {
          "components": [
            {
              "internalType": "address",
              "name": "addr",
              "type": "address"
            },
            {
              "internalType": "string",
              "name": "name",
              "type": "string"
            },
            {
              "internalType": "string",
              "name": "email",
              "type": "string"
            },
            {
              "internalType": "string",
              "name": "hospital",
              "type": "string"
            },
            {
              "internalType": "string",
              "name": "specialization",
              "type": "string"
            },
            {
              "internalType": "uint256",
              "name": "age",
              "type": "uint256"
            },
            {
              "internalType": "address[]",
              "name": "patientAccessList",
              "type": "address[]"
            }
          ],
          "internalType": "struct Health.doctor[]",
          "name": "",
          "type": "tuple[]"
        }
      ],
      "stateMutability": "view",
      "type": "function",
      "constant": true
    },
    {
      "inputs": [
        {
          "internalType": "address",
          "name": "_patient",
          "type": "address"
        }
      ],
      "name": "get_prescriptions",
      "outputs": [
        {
          "components": [
            {
              "internalType": "string",
              "name": "date",
              "type": "string"
            },
            {
              "internalType": "address",
              "name": "doctor",
              "type": "address"
            },
            {
              "internalType": "string",
              "name": "data",
              "type": "string"
            },
            {
              "internalType": "string",
              "name": "status",
              "type": "string"
            }
          ],
          "internalType": "struct Health.prescription[]",
          "name": "",
          "type": "tuple[]"
        }
      ],
      "stateMutability": "view",
      "type": "function",
      "constant": true
    },
    {
      "inputs": [
        {
          "internalType": "address",
          "name": "_patient",
          "type": "address"
        }
      ],
      "name": "get_pending_prescriptions",
      "outputs": [
        {
          "components": [
            {
              "internalType": "string",
              "name": "date",
              "type": "string"
            },
            {
              "internalType": "address",
              "name": "doctor",
              "type": "address"
            },
            {
              "internalType": "string",
              "name": "data",
              "type": "string"
            },
            {
              "internalType": "string",
              "name": "status",
              "type": "string"
            }
          ],
          "internalType": "struct Health.prescription[]",
          "name": "",
          "type": "tuple[]"
        }
      ],
      "stateMutability": "view",
      "type": "function",
      "constant": true
    },
    {
      "inputs": [
        {
          "internalType": "address",
          "name": "_patient",
          "type": "address"
        },
        {
          "internalType": "uint256",
          "name": "_index",
          "type": "uint256"
        }
      ],
      "name": "resolve_prescription",
      "outputs": [],
      "stateMutability": "nonpayable",
      "type": "function"
    }
  ],
  "bytecode": "0x610140604052604260c08181526080918291906200422c60e0398152602001604051806080016040528060428152602001620041ea6042913990526200004a906005906002620000b5565b506040805180820190915273eb0ee4dbd8fc8e6766300c4fd07a83cfd613cad3815273d76dd9c7648b5c8085af2a262e38b2958a02681a6020820152620000969060079060026200010c565b5060006009556000600a55348015620000ae57600080fd5b506200029c565b8260028101928215620000fa579160200282015b82811115620000fa5782518051620000e991849160209091019062000165565b5091602001919060010190620000c9565b5062000108929150620001e2565b5090565b826002810192821562000157579160200282015b828111156200015757825182546001600160a01b0319166001600160a01b0390911617825560209092019160019091019062000120565b506200010892915062000203565b82805462000173906200025f565b90600052602060002090601f01602090048101928262000197576000855562000157565b82601f10620001b257805160ff191683800117855562000157565b8280016001018555821562000157579182015b8281111562000157578251825591602001919060010190620001c5565b8082111562000108576000620001f982826200021a565b50600101620001e2565b5b8082111562000108576000815560010162000204565b50805462000228906200025f565b6000825580601f106200023c57506200025c565b601f0160209004906000526020600020908101906200025c919062000203565b50565b6002810460018216806200027457607f821691505b602082108114156200029657634e487b7160e01b600052602260045260246000fd5b50919050565b613f3e80620002ac6000396000f3fe6080604052600436106101815760003560e01c80639752c6df116100d1578063bcffb7ca1161008a578063e7b5fc3b11610064578063e7b5fc3b14610484578063edea5111146104a4578063f0d95090146104d5578063fde08174146104f757610181565b8063bcffb7ca1461042f578063cc8e239414610442578063e1b682bb1461046457610181565b80639752c6df1461036e57806397c0b61c146103915780639af7869f146103c15780639de989b2146103e3578063a0303c41146103f8578063b40c18aa1461040d57610181565b80633a96fdd71161013e5780635db90b09116101185780635db90b09146102ec57806378522bc41461030c5780638b12f18f14610321578063900b8b0c1461034e57610181565b80633a96fdd7146102705780634042d2d41461029d57806356c98c48146102cc57610181565b80630d6dcd91146101865780631387974e146101a857806318818a7e146101e357806326a26ed21461021057806327b1dcee146102305780633a7d280c14610243575b600080fd5b34801561019257600080fd5b506101a66101a1366004613601565b61050c565b005b3480156101b457600080fd5b506101c86101c33660046133d3565b6105c9565b6040516101da96959493929190613870565b60405180910390f35b3480156101ef57600080fd5b506102036101fe3660046133d3565b610828565b6040516101da9190613a37565b34801561021c57600080fd5b506101a661022b366004613440565b610c51565b6101a661023e3660046133d3565b610e6e565b34801561024f57600080fd5b5061026361025e36600461362a565b610ebd565b6040516101da9190613e10565b34801561027c57600080fd5b5061029061028b366004613665565b6110bc565b6040516101da9190613bb9565b3480156102a957600080fd5b506102bd6102b83660046133d3565b611115565b6040516101da93929190613c78565b3480156102d857600080fd5b506101c86102e73660046133d3565b61126b565b3480156102f857600080fd5b506102036103073660046133d3565b6114f8565b34801561031857600080fd5b5061026361173a565b34801561032d57600080fd5b5061034161033c3660046133d3565b611740565b6040516101da9190613add565b34801561035a57600080fd5b506101a66103693660046133f4565b611b95565b34801561037a57600080fd5b50610383611bf2565b6040516101da92919061384c565b34801561039d57600080fd5b506103b16103ac366004613601565b611ce0565b6040516101da9493929190613bd7565b3480156103cd57600080fd5b506103d6611ed4565b6040516101da91906138e2565b3480156103ef57600080fd5b506103d6611f44565b34801561040457600080fd5b50610263611fb2565b34801561041957600080fd5b50610422611fb8565b6040516101da919061392f565b6101a661043d3660046133d3565b612091565b34801561044e57600080fd5b506104576120f8565b6040516101da9190613bc4565b34801561047057600080fd5b506101a661047f36600461351b565b612195565b34801561049057600080fd5b506101a661049f3660046136bc565b612336565b3480156104b057600080fd5b506104c46104bf3660046133d3565b612732565b6040516101da959493929190613c2a565b3480156104e157600080fd5b506104ea6128f8565b6040516101da9190613942565b34801561050357600080fd5b50610263612d1d565b600061053883836040518060400160405280600781526020016650656e64696e6760c81b815250612d33565b90506040518060400160405280600881526020016714995cdbdb1d995960c21b81525060036000856001600160a01b03166001600160a01b03168152602001908152602001600020828154811061059f57634e487b7160e01b600052603260045260246000fd5b906000526020600020906004020160030190805190602001906105c39291906130d2565b50505050565b600260205260009081526040902080546001820180546001600160a01b0390921692916105f590613e86565b80601f016020809104026020016040519081016040528092919081815260200182805461062190613e86565b801561066e5780601f106106435761010080835404028352916020019161066e565b820191906000526020600020905b81548152906001019060200180831161065157829003601f168201915b50505050509080600201805461068390613e86565b80601f01602080910402602001604051908101604052809291908181526020018280546106af90613e86565b80156106fc5780601f106106d1576101008083540402835291602001916106fc565b820191906000526020600020905b8154815290600101906020018083116106df57829003601f168201915b50505050509080600301805461071190613e86565b80601f016020809104026020016040519081016040528092919081815260200182805461073d90613e86565b801561078a5780601f1061075f5761010080835404028352916020019161078a565b820191906000526020600020905b81548152906001019060200180831161076d57829003601f168201915b50505050509080600401805461079f90613e86565b80601f01602080910402602001604051908101604052809291908181526020018280546107cb90613e86565b80156108185780601f106107ed57610100808354040283529160200191610818565b820191906000526020600020905b8154815290600101906020018083116107fb57829003601f168201915b5050505050908060050154905086565b606060006108556040518060400160405280600781526020016650656e64696e6760c81b81525084612e7f565b67ffffffffffffffff81111561087b57634e487b7160e01b600052604160045260246000fd5b6040519080825280602002602001820160405280156108b457816020015b6108a1613156565b8152602001906001900390816108995790505b5090506000805b6001600160a01b038516600090815260036020526040902054811015610c46576001600160a01b038516600090815260036020526040902080546109d791908390811061091857634e487b7160e01b600052603260045260246000fd5b9060005260206000209060040201600301805461093490613e86565b80601f016020809104026020016040519081016040528092919081815260200182805461096090613e86565b80156109ad5780601f10610982576101008083540402835291602001916109ad565b820191906000526020600020905b81548152906001019060200180831161099057829003601f168201915b50505050506040518060400160405280600781526020016650656e64696e6760c81b8152506110bc565b15610c34576001600160a01b0385166000908152600360205260409020805482908110610a1457634e487b7160e01b600052603260045260246000fd5b9060005260206000209060040201604051806080016040529081600082018054610a3d90613e86565b80601f0160208091040260200160405190810160405280929190818152602001828054610a6990613e86565b8015610ab65780601f10610a8b57610100808354040283529160200191610ab6565b820191906000526020600020905b815481529060010190602001808311610a9957829003601f168201915b505050918352505060018201546001600160a01b03166020820152600282018054604090920191610ae690613e86565b80601f0160208091040260200160405190810160405280929190818152602001828054610b1290613e86565b8015610b5f5780601f10610b3457610100808354040283529160200191610b5f565b820191906000526020600020905b815481529060010190602001808311610b4257829003601f168201915b50505050508152602001600382018054610b7890613e86565b80601f0160208091040260200160405190810160405280929190818152602001828054610ba490613e86565b8015610bf15780601f10610bc657610100808354040283529160200191610bf1565b820191906000526020600020905b815481529060010190602001808311610bd457829003601f168201915b505050505081525050838381518110610c1a57634e487b7160e01b600052603260045260246000fd5b60200260200101819052508180610c3090613ec1565b9250505b80610c3e81613ec1565b9150506108bb565b50909150505b919050565b6001600160a01b0386166000908152600160209081526040808320815160c0810183528981523381850152808301899052606081018890526080810187905260a0810186905260068201548552600582018452919093208151805192939192610cbd92849201906130d2565b506020828101516001830180546001600160a01b0319166001600160a01b0390921691909117905560408301518051610cfc92600285019201906130d2565b5060608201518051610d189160038401916020909101906130d2565b5060808201518051610d349160048401916020909101906130d2565b5060a08201518051610d50916005840191602090910190613187565b505050600681018054906000610d6583613ec1565b9190505550610d8360405180602001604052806000815250846110bc565b610e65576001600160a01b038716600090815260036020908152604080832081516080810183528a815233818501528083018890528251808401909352600783526650656e64696e6760c81b83850152606081019290925280546001810182559084529282902081518051929460040290910192610e06928492909101906130d2565b506020828101516001830180546001600160a01b0319166001600160a01b0390921691909117905560408301518051610e4592600285019201906130d2565b5060608201518051610e619160038401916020909101906130d2565b5050505b50505050505050565b6001600160a01b038116600090815260026020526040902033908290600601610e978184612f0e565b506001600160a01b03821660009081526001602052604090206004016105c38183612f0e565b60408051602080820183526000808352338082529181905292832060010180549192610f7292909190610eef90613e86565b80601f0160208091040260200160405190810160405280929190818152602001828054610f1b90613e86565b8015610f685780601f10610f3d57610100808354040283529160200191610f68565b820191906000526020600020905b815481529060010190602001808311610f4b57829003601f168201915b50505050506110bc565b610f975760405162461bcd60e51b8152600401610f8e90613d98565b60405180910390fd5b6001600160a01b03818116600090815260208190526040902054163314610fd05760405162461bcd60e51b8152600401610f8e90613d2c565b6001600160a01b0381166000908152602081905260409020600101805461107f9190610ffb90613e86565b80601f016020809104026020016040519081016040528092919081815260200182805461102790613e86565b80156110745780601f1061104957610100808354040283529160200191611074565b820191906000526020600020905b81548152906001019060200180831161105757829003601f168201915b5050505050846110bc565b61109b5760405162461bcd60e51b8152600401610f8e90613dd9565b6001600160a01b031660009081526020819052604090206002015492915050565b6000816040516020016110cf9190613830565b60405160208183030381529060405280519060200120836040516020016110f69190613830565b6040516020818303038152906040528051906020012014905092915050565b6001600160a01b03811660009081526001602081905260408220600381015491810180546060949385939091600290910190839061115290613e86565b80601f016020809104026020016040519081016040528092919081815260200182805461117e90613e86565b80156111cb5780601f106111a0576101008083540402835291602001916111cb565b820191906000526020600020905b8154815290600101906020018083116111ae57829003601f168201915b505050505092508080546111de90613e86565b80601f016020809104026020016040519081016040528092919081815260200182805461120a90613e86565b80156112575780601f1061122c57610100808354040283529160200191611257565b820191906000526020600020905b81548152906001019060200180831161123a57829003601f168201915b505050505090509250925092509193909250565b6001600160a01b03808216600090815260026020819052604082208054600582015460018301805495966060968796879687968b96941694939181019260038201926004909201919085906112bf90613e86565b80601f01602080910402602001604051908101604052809291908181526020018280546112eb90613e86565b80156113385780601f1061130d57610100808354040283529160200191611338565b820191906000526020600020905b81548152906001019060200180831161131b57829003601f168201915b5050505050945083805461134b90613e86565b80601f016020809104026020016040519081016040528092919081815260200182805461137790613e86565b80156113c45780601f10611399576101008083540402835291602001916113c4565b820191906000526020600020905b8154815290600101906020018083116113a757829003601f168201915b505050505093508280546113d790613e86565b80601f016020809104026020016040519081016040528092919081815260200182805461140390613e86565b80156114505780601f1061142557610100808354040283529160200191611450565b820191906000526020600020905b81548152906001019060200180831161143357829003601f168201915b5050505050925081805461146390613e86565b80601f016020809104026020016040519081016040528092919081815260200182805461148f90613e86565b80156114dc5780601f106114b1576101008083540402835291602001916114dc565b820191906000526020600020905b8154815290600101906020018083116114bf57829003601f168201915b5050505050915095509550955095509550955091939550919395565b6001600160a01b0381166000908152600360209081526040808320805482518185028101850190935280835260609492939192909184015b8282101561172f578382906000526020600020906004020160405180608001604052908160008201805461156390613e86565b80601f016020809104026020016040519081016040528092919081815260200182805461158f90613e86565b80156115dc5780601f106115b1576101008083540402835291602001916115dc565b820191906000526020600020905b8154815290600101906020018083116115bf57829003601f168201915b505050918352505060018201546001600160a01b0316602082015260028201805460409092019161160c90613e86565b80601f016020809104026020016040519081016040528092919081815260200182805461163890613e86565b80156116855780601f1061165a57610100808354040283529160200191611685565b820191906000526020600020905b81548152906001019060200180831161166857829003601f168201915b5050505050815260200160038201805461169e90613e86565b80601f01602080910402602001604051908101604052809291908181526020018280546116ca90613e86565b80156117175780601f106116ec57610100808354040283529160200191611717565b820191906000526020600020905b8154815290600101906020018083116116fa57829003601f168201915b50505050508152505081526020019060010190611530565b505050509050919050565b600a5481565b6001600160a01b0381166000908152600160205260408120600601546060919067ffffffffffffffff81111561178657634e487b7160e01b600052604160045260246000fd5b6040519080825280602002602001820160405280156117bf57816020015b6117ac6131e0565b8152602001906001900390816117a45790505b50905060005b6001600160a01b038416600090815260016020526040902060060154811015611b8e576001600160a01b038416600090815260016020908152604080832084845260050190915290819020815160c0810190925280548290829061182890613e86565b80601f016020809104026020016040519081016040528092919081815260200182805461185490613e86565b80156118a15780601f10611876576101008083540402835291602001916118a1565b820191906000526020600020905b81548152906001019060200180831161188457829003601f168201915b505050918352505060018201546001600160a01b031660208201526002820180546040909201916118d190613e86565b80601f01602080910402602001604051908101604052809291908181526020018280546118fd90613e86565b801561194a5780601f1061191f5761010080835404028352916020019161194a565b820191906000526020600020905b81548152906001019060200180831161192d57829003601f168201915b5050505050815260200160038201805461196390613e86565b80601f016020809104026020016040519081016040528092919081815260200182805461198f90613e86565b80156119dc5780601f106119b1576101008083540402835291602001916119dc565b820191906000526020600020905b8154815290600101906020018083116119bf57829003601f168201915b505050505081526020016004820180546119f590613e86565b80601f0160208091040260200160405190810160405280929190818152602001828054611a2190613e86565b8015611a6e5780601f10611a4357610100808354040283529160200191611a6e565b820191906000526020600020905b815481529060010190602001808311611a5157829003601f168201915b5050505050815260200160058201805480602002602001604051908101604052809291908181526020016000905b82821015611b48578382906000526020600020018054611abb90613e86565b80601f0160208091040260200160405190810160405280929190818152602001828054611ae790613e86565b8015611b345780601f10611b0957610100808354040283529160200191611b34565b820191906000526020600020905b815481529060010190602001808311611b1757829003601f168201915b505050505081526020019060010190611a9c565b5050505081525050828281518110611b7057634e487b7160e01b600052603260045260246000fd5b60200260200101819052508080611b8690613ec1565b9150506117c5565b5092915050565b6001600160a01b03821660008181526020818152604090912080546001600160a01b03191690921782558251611bd192600101918401906130d2565b50506001600160a01b03166000908152602081905260409020600290810155565b600060606007600b5460028110611c1957634e487b7160e01b600052603260045260246000fd5b0154600b546001600160a01b039091169060059060028110611c4b57634e487b7160e01b600052603260045260246000fd5b01808054611c5890613e86565b80601f0160208091040260200160405190810160405280929190818152602001828054611c8490613e86565b8015611cd15780601f10611ca657610100808354040283529160200191611cd1565b820191906000526020600020905b815481529060010190602001808311611cb457829003601f168201915b50505050509050915091509091565b60036020528160005260406000208181548110611cfc57600080fd5b906000526020600020906004020160009150915050806000018054611d2090613e86565b80601f0160208091040260200160405190810160405280929190818152602001828054611d4c90613e86565b8015611d995780601f10611d6e57610100808354040283529160200191611d99565b820191906000526020600020905b815481529060010190602001808311611d7c57829003601f168201915b505050600184015460028501805494956001600160a01b03909216949193509150611dc390613e86565b80601f0160208091040260200160405190810160405280929190818152602001828054611def90613e86565b8015611e3c5780601f10611e1157610100808354040283529160200191611e3c565b820191906000526020600020905b815481529060010190602001808311611e1f57829003601f168201915b505050505090806003018054611e5190613e86565b80601f0160208091040260200160405190810160405280929190818152602001828054611e7d90613e86565b8015611eca5780601f10611e9f57610100808354040283529160200191611eca565b820191906000526020600020905b815481529060010190602001808311611ead57829003601f168201915b5050505050905084565b3360008181526001602090815260409182902060040180548351818402810184019094528084526060949392830182828015611f3957602002820191906000526020600020905b81546001600160a01b03168152600190910190602001808311611f1b575b505050505091505090565b3360008181526002602090815260409182902060060180548351818402810184019094528084526060949392830182828015611f39576020028201919060005260206000209081546001600160a01b03168152600190910190602001808311611f1b57505050505091505090565b60095481565b60606004805480602002602001604051908101604052809291908181526020016000905b82821015612088578382906000526020600020018054611ffb90613e86565b80601f016020809104026020016040519081016040528092919081815260200182805461202790613e86565b80156120745780601f1061204957610100808354040283529160200191612074565b820191906000526020600020905b81548152906001019060200180831161205757829003601f168201915b505050505081526020019060010190611fdc565b50505050905090565b6001600160a01b03166000818152600260209081526040808320600601805460018082018355918552838520018054336001600160a01b03199182168117909255908552818452918420600401805491820181558452919092200180549091169091179055565b3360008181526020819052604090206001018054606092919061211a90613e86565b80601f016020809104026020016040519081016040528092919081815260200182805461214690613e86565b8015611f395780601f1061216857610100808354040283529160200191611f39565b820191906000526020600020905b8154815290600101906020018083116121765750939695505050505050565b6001600160a01b0380881660008181526020819052604090205490911614156121d05760405162461bcd60e51b8152600401610f8e90613cad565b6001600160a01b03871660008181526020818152604090912080546001600160a01b0319169092178255825161220c92600101918401906130d2565b506001600160a01b03871660009081526020819052604081206001600290910155600a80549161223b83613ec1565b90915550506001600160a01b038716600081815260026020908152604090912080546001600160a01b0319169092178255855161227e92600301918701906130d2565b506001600160a01b038716600090815260026020908152604090912084516122ae926004909201918601906130d2565b506001600160a01b038716600090815260026020908152604090912087516122de926001909201918901906130d2565b506001600160a01b0387166000908152600260208181526040909220875161230e939190920191908801906130d2565b50506001600160a01b0390951660009081526002602052604090206005019490945550505050565b6000600b555b6002600b5410156123cd576123a9604051806020016040528060008152506000806007600b546002811061238057634e487b7160e01b600052603260045260246000fd5b01546001600160a01b0316815260208101919091526040016000206001018054610eef90613e86565b156123b3576123cd565b600b80549060006123c383613ec1565b919050555061233c565b6002600b54106123ef5760405162461bcd60e51b8152600401610f8e90613d61565b6007600b546002811061241257634e487b7160e01b600052603260045260246000fd5b0154600b546001600160a01b039091169060009081906007906002811061244957634e487b7160e01b600052603260045260246000fd5b01546001600160a01b0390811682526020820192909252604001600090812080546001600160a01b03191693909216929092179055600b548291908190600790600281106124a757634e487b7160e01b600052603260045260246000fd5b01546001600160a01b0316815260208082019290925260400160002082516124d99360019092019291909101906130d2565b5060008060006007600b546002811061250257634e487b7160e01b600052603260045260246000fd5b01546001600160a01b031681526020810191909152604001600090812060020191909155600980549161253483613ec1565b909155505060048054600181018255600091909152855161257c917f8a35acfbc15ff81a39ae7d344fd709f28e8600b4aa8c65c6b64bfe7fe36bd19b019060208801906130d2565b5084600160006007600b54600281106125a557634e487b7160e01b600052603260045260246000fd5b01546001600160a01b0316815260208082019290925260400160002082516125d393919291909101906130d2565b5083600160006007600b54600281106125fc57634e487b7160e01b600052603260045260246000fd5b01546001600160a01b03168152602080820192909252604001600020825161262e9360019092019291909101906130d2565b5081600160006007600b546002811061265757634e487b7160e01b600052603260045260246000fd5b01546001600160a01b031681526020810191909152604001600090812060030191909155600b548491600191600790600281106126a457634e487b7160e01b600052603260045260246000fd5b01546001600160a01b0316815260208082019290925260400160002082516126d69360029092019291909101906130d2565b506000600160006007600b546002811061270057634e487b7160e01b600052603260045260246000fd5b01546001600160a01b03168152602081019190915260400160002060060155600b5461272b906130cd565b5050505050565b60016020526000908152604090208054819061274d90613e86565b80601f016020809104026020016040519081016040528092919081815260200182805461277990613e86565b80156127c65780601f1061279b576101008083540402835291602001916127c6565b820191906000526020600020905b8154815290600101906020018083116127a957829003601f168201915b5050505050908060010180546127db90613e86565b80601f016020809104026020016040519081016040528092919081815260200182805461280790613e86565b80156128545780601f1061282957610100808354040283529160200191612854565b820191906000526020600020905b81548152906001019060200180831161283757829003601f168201915b50505050509080600201805461286990613e86565b80601f016020809104026020016040519081016040528092919081815260200182805461289590613e86565b80156128e25780601f106128b7576101008083540402835291602001916128e2565b820191906000526020600020905b8154815290600101906020018083116128c557829003601f168201915b5050505050908060030154908060060154905085565b60606000600a5467ffffffffffffffff81111561292557634e487b7160e01b600052604160045260246000fd5b60405190808252806020026020018201604052801561295e57816020015b61294b61321f565b8152602001906001900390816129435790505b5090506000805b6002811015612d15576000806007836002811061299257634e487b7160e01b600052603260045260246000fd5b01546001600160a01b0316815260208101919091526040016000206002015460011415612d035760026000600783600281106129de57634e487b7160e01b600052603260045260246000fd5b01546001600160a01b0390811682526020808301939093526040918201600020825160e08101909352805490911682526001810180549293919291840191612a2590613e86565b80601f0160208091040260200160405190810160405280929190818152602001828054612a5190613e86565b8015612a9e5780601f10612a7357610100808354040283529160200191612a9e565b820191906000526020600020905b815481529060010190602001808311612a8157829003601f168201915b50505050508152602001600282018054612ab790613e86565b80601f0160208091040260200160405190810160405280929190818152602001828054612ae390613e86565b8015612b305780601f10612b0557610100808354040283529160200191612b30565b820191906000526020600020905b815481529060010190602001808311612b1357829003601f168201915b50505050508152602001600382018054612b4990613e86565b80601f0160208091040260200160405190810160405280929190818152602001828054612b7590613e86565b8015612bc25780601f10612b9757610100808354040283529160200191612bc2565b820191906000526020600020905b815481529060010190602001808311612ba557829003601f168201915b50505050508152602001600482018054612bdb90613e86565b80601f0160208091040260200160405190810160405280929190818152602001828054612c0790613e86565b8015612c545780601f10612c2957610100808354040283529160200191612c54565b820191906000526020600020905b815481529060010190602001808311612c3757829003601f168201915b505050505081526020016005820154815260200160068201805480602002602001604051908101604052809291908181526020018280548015612cc057602002820191906000526020600020905b81546001600160a01b03168152600190910190602001808311612ca2575b505050505081525050838381518110612ce957634e487b7160e01b600052603260045260246000fd5b60200260200101819052508180612cff90613ec1565b9250505b80612d0d81613ec1565b915050612965565b509091505090565b3360009081526020819052604090206002015490565b60008080805b6001600160a01b038716600090815260036020526040902054811015612e75576001600160a01b03871660009081526003602052604090208054612e36919083908110612d9657634e487b7160e01b600052603260045260246000fd5b90600052602060002090600402016003018054612db290613e86565b80601f0160208091040260200160405190810160405280929190818152602001828054612dde90613e86565b8015612e2b5780601f10612e0057610100808354040283529160200191612e2b565b820191906000526020600020905b815481529060010190602001808311612e0e57829003601f168201915b5050505050866110bc565b15612e635782612e4581613ec1565b9350869050612e55600185613e43565b1415612e6357809150612e75565b80612e6d81613ec1565b915050612d39565b5095945050505050565b600080805b6001600160a01b038416600090815260036020526040902054811015612f06576001600160a01b03841660009081526003602052604090208054612ee1919083908110612d9657634e487b7160e01b600052603260045260246000fd5b15612ef45781612ef081613ec1565b9250505b80612efe81613ec1565b915050612e84565b509392505050565b60008060005b8454811015612f8057836001600160a01b0316858281548110612f4757634e487b7160e01b600052603260045260246000fd5b6000918252602090912001546001600160a01b03161415612f6e5760019250809150612f80565b80612f7881613ec1565b915050612f14565b5081612f9e5760405162461bcd60e51b8152600401610f8e90613cf5565b835460011415612fed5783805480612fc657634e487b7160e01b600052603160045260246000fd5b600082815260209020810160001990810180546001600160a01b03191690550190556105c3565b83548490612ffd90600190613e43565b8154811061301b57634e487b7160e01b600052603260045260246000fd5b9060005260206000200160009054906101000a90046001600160a01b031684828154811061305957634e487b7160e01b600052603260045260246000fd5b9060005260206000200160006101000a8154816001600160a01b0302191690836001600160a01b03160217905550838054806130a557634e487b7160e01b600052603160045260246000fd5b600082815260209020810160001990810180546001600160a01b031916905501905550505050565b600b55565b8280546130de90613e86565b90600052602060002090601f0160209004810192826131005760008555613146565b82601f1061311957805160ff1916838001178555613146565b82800160010185558215613146579182015b8281111561314657825182559160200191906001019061312b565b50613152929150613265565b5090565b60405180608001604052806060815260200160006001600160a01b0316815260200160608152602001606081525090565b8280548282559060005260206000209081019282156131d4579160200282015b828111156131d457825180516131c49184916020909101906130d2565b50916020019190600101906131a7565b5061315292915061327a565b6040518060c001604052806060815260200160006001600160a01b03168152602001606081526020016060815260200160608152602001606081525090565b6040518060e0016040528060006001600160a01b031681526020016060815260200160608152602001606081526020016060815260200160008152602001606081525090565b5b808211156131525760008155600101613266565b8082111561315257600061328e8282613297565b5060010161327a565b5080546132a390613e86565b6000825580601f106132b557506132d3565b601f0160209004906000526020600020908101906132d39190613265565b50565b80356001600160a01b0381168114610c4c57600080fd5b600082601f8301126132fd578081fd5b8135602067ffffffffffffffff82111561331957613319613ef2565b6133268182840201613e19565b82815281810190858301855b8581101561335b57613349898684358b0101613368565b84529284019290840190600101613332565b5090979650505050505050565b600082601f830112613378578081fd5b813567ffffffffffffffff81111561339257613392613ef2565b6133a5601f8201601f1916602001613e19565b8181528460208386010111156133b9578283fd5b816020850160208301379081016020019190915292915050565b6000602082840312156133e4578081fd5b6133ed826132d6565b9392505050565b60008060408385031215613406578081fd5b61340f836132d6565b9150602083013567ffffffffffffffff81111561342a578182fd5b61343685828601613368565b9150509250929050565b60008060008060008060c08789031215613458578182fd5b613461876132d6565b9550602087013567ffffffffffffffff8082111561347d578384fd5b6134898a838b01613368565b9650604089013591508082111561349e578384fd5b6134aa8a838b01613368565b955060608901359150808211156134bf578384fd5b6134cb8a838b01613368565b945060808901359150808211156134e0578384fd5b6134ec8a838b01613368565b935060a0890135915080821115613501578283fd5b5061350e89828a016132ed565b9150509295509295509295565b600080600080600080600060e0888a031215613535578081fd5b61353e886132d6565b9650602088013567ffffffffffffffff8082111561355a578283fd5b6135668b838c01613368565b975060408a013591508082111561357b578283fd5b6135878b838c01613368565b965060608a013591508082111561359c578283fd5b6135a88b838c01613368565b955060808a01359150808211156135bd578283fd5b6135c98b838c01613368565b945060a08a0135935060c08a01359150808211156135e5578283fd5b506135f28a828b01613368565b91505092959891949750929550565b60008060408385031215613613578182fd5b61361c836132d6565b946020939093013593505050565b60006020828403121561363b578081fd5b813567ffffffffffffffff811115613651578182fd5b61365d84828501613368565b949350505050565b60008060408385031215613677578182fd5b823567ffffffffffffffff8082111561368e578384fd5b61369a86838701613368565b935060208501359150808211156136af578283fd5b5061343685828601613368565b600080600080600060a086880312156136d3578081fd5b853567ffffffffffffffff808211156136ea578283fd5b6136f689838a01613368565b9650602088013591508082111561370b578283fd5b61371789838a01613368565b9550604088013591508082111561372c578283fd5b61373889838a01613368565b9450606088013593506080880135915080821115613754578283fd5b5061376188828901613368565b9150509295509295909350565b6000815180845260208085019450808401835b838110156137a65781516001600160a01b031687529582019590820190600101613781565b509495945050505050565b6000815180845260208085018081965082840281019150828601855b858110156137f75782840389526137e5848351613804565b988501989350908401906001016137cd565b5091979650505050505050565b6000815180845261381c816020860160208601613e5a565b601f01601f19169290920160200192915050565b60008251613842818460208701613e5a565b9190910192915050565b6001600160a01b038316815260406020820181905260009061365d90830184613804565b6001600160a01b038716815260c06020820181905260009061389490830188613804565b82810360408401526138a68188613804565b905082810360608401526138ba8187613804565b905082810360808401526138ce8186613804565b9150508260a0830152979650505050505050565b6020808252825182820181905260009190848201906040850190845b818110156139235783516001600160a01b0316835292840192918401916001016138fe565b50909695505050505050565b6000602082526133ed60208301846137b1565b60208082528251828201819052600091906040908185019080840286018301878501865b83811015613a2957888303603f19018552815180516001600160a01b031684528781015160e08986018190529061399f82870182613804565b91505087820151858203898701526139b78282613804565b915050606080830151868303828801526139d18382613804565b92505050608080830151868303828801526139ec8382613804565b9250505060a080830151818701525060c08083015192508582038187015250613a15818361376e565b968901969450505090860190600101613966565b509098975050505050505050565b60208082528251828201819052600091906040908185019080840286018301878501865b83811015613a2957603f19898403018552815160808151818652613a8182870182613804565b838b01516001600160a01b0316878c0152898401518782038b8901529092509050613aac8282613804565b91505060608083015192508582038187015250613ac98183613804565b968901969450505090860190600101613a5b565b60208082528251828201819052600091906040908185019080840286018301878501865b83811015613a2957603f19898403018552815160c08151818652613b2782870182613804565b838b01516001600160a01b0316878c0152898401518782038b8901529092509050613b528282613804565b91505060608083015186830382880152613b6c8382613804565b9250505060808083015186830382880152613b878382613804565b9250505060a08083015192508582038187015250613ba581836137b1565b968901969450505090860190600101613b01565b901515815260200190565b6000602082526133ed6020830184613804565b600060808252613bea6080830187613804565b6001600160a01b03861660208401528281036040840152613c0b8186613804565b90508281036060840152613c1f8185613804565b979650505050505050565b600060a08252613c3d60a0830188613804565b8281036020840152613c4f8188613804565b90508281036040840152613c638187613804565b60608401959095525050608001529392505050565b600060608252613c8b6060830186613804565b8460208401528281036040840152613ca38185613804565b9695505050505050565b60208082526028908201527f5468697320616464726573732068617320616c7265616479206265656e20726560408201526719da5cdd195c995960c21b606082015260800190565b60208082526019908201527f41646472657373206e6f7420666f756e6420696e206c69737400000000000000604082015260600190565b6020808252818101527f596f752063616e6e6f74206c6f67696e20746f2074686973206163636f756e74604082015260600190565b60208082526019908201527f4f7574206f6620706f737369626c652061646472657373657300000000000000604082015260600190565b60208082526021908201527f4163636f756e74206e6f7420666f756e642e20526567697374657220666972736040820152601d60fa1b606082015260800190565b60208082526017908201527f50617373776f726420646f6573206e6f74206d61746368000000000000000000604082015260600190565b90815260200190565b60405181810167ffffffffffffffff81118282101715613e3b57613e3b613ef2565b604052919050565b600082821015613e5557613e55613edc565b500390565b60005b83811015613e75578181015183820152602001613e5d565b838111156105c35750506000910152565b600281046001821680613e9a57607f821691505b60208210811415613ebb57634e487b7160e01b600052602260045260246000fd5b50919050565b6000600019821415613ed557613ed5613edc565b5060010190565b634e487b7160e01b600052601160045260246000fd5b634e487b7160e01b600052604160045260246000fdfea2646970667358221220557dac21ac435a3ded2a0762f48dc9d1b7abc41541ea07a056df01228005657364736f6c63430008000033307838653035323531653935663839633465303330323034356332646266383434666130383338623232336264373466646131363639396239353862643639323237307834353561623164623039376436366431346130323939323935316630333166666261333664646635353166386661346538343731363936373264396163653336",
  "immutableReferences": {},
  "source": "// SPDX-License-Identifier: MIT\npragma solidity ^0.8.0;\n\ncontract Health {\n    struct user {\n        address addr;\n        string password;\n        uint categ;\n    }\n\n    struct record {\n        string date;\n        address doctor;\n        string diagnosis;\n        string description;\n        string prescription;\n        string[] files;\n    }\n\n    struct patient {\n        string aadhar;\n        string name;\n        string email;\n        uint age;\n        address[] doctorAccessList;\n        mapping(uint => record) recordMap;\n        uint recordSize;\n    }\n\n    struct doctor {\n        address addr;\n        string name;\n        string email;\n        string hospital;\n        string specialization;\n        uint age;\n        address[] patientAccessList;\n    }\n\n    struct prescription {\n        string date;\n        address doctor;\n        string data;\n        string status;\n    }\n\n    mapping(address => user) USERS;\n    mapping(address => patient) public PATIENTS;\n    mapping(address => doctor) public DOCTORS;\n    mapping(address => prescription[]) public PHARMACY;\n\n    string[] aadhar;\n\n    string[2] private_keys = [\n        \"0x455ab1db097d66d14a02992951f031ffba36ddf551f8fa4e847169672d9ace36\",\n        \"0x8e05251e95f89c4e0302045c2dbf844fa0838b223bd74fda16699b958bd69227\"\n    ];\n    address[2] addresses = [\n        0xEB0EE4DBD8Fc8E6766300c4fD07a83CFd613cad3,\n        0xD76Dd9c7648B5c8085af2a262E38b2958a02681a\n    ];\n\n    // variable to keep count of patients and doctors\n    uint public patientCount = 0;\n    uint public doctorCount = 0;\n\n    /* UTILITY FUNCTIONS */\n\n    function compare(\n        string memory str1,\n        string memory str2\n    ) public pure returns (bool) {\n        return\n            keccak256(abi.encodePacked(str1)) ==\n            keccak256(abi.encodePacked(str2));\n    }\n\n    function get_count(\n        string memory _filter,\n        address _addr\n    ) private view returns (uint) {\n        uint count = 0;\n        for (uint k = 0; k < PHARMACY[_addr].length; k++) {\n            if (compare(PHARMACY[_addr][k].status, _filter)) {\n                count++;\n            }\n        }\n        return count;\n    }\n\n    function find_actual_index(\n        address _patient,\n        uint _index,\n        string memory _filter\n    ) private view returns (uint) {\n        uint count = 0;\n        uint pos = 0;\n        for (uint p = 0; p < PHARMACY[_patient].length; p++) {\n            if (compare(PHARMACY[_patient][p].status, _filter)) {\n                count++;\n                if ((count - 1) == _index) {\n                    pos = p;\n                    break;\n                }\n            }\n        }\n        return pos;\n    }\n\n    /* AUTHENTICATION MODULE */\n\n    function add_doctor(\n        address _addr,\n        string memory _name,\n        string memory _email,\n        string memory _hospital,\n        string memory _special,\n        uint _age,\n        string memory _password\n    ) public {\n        require(\n            USERS[_addr].addr != _addr,\n            \"This address has already been registered\"\n        );\n        USERS[_addr].addr = _addr;\n        USERS[_addr].password = _password;\n        USERS[_addr].categ = 1;\n\n        doctorCount++;\n        DOCTORS[_addr].addr = _addr;\n        DOCTORS[_addr].hospital = _hospital;\n        DOCTORS[_addr].specialization = _special;\n        DOCTORS[_addr].name = _name;\n        DOCTORS[_addr].email = _email;\n\n        DOCTORS[_addr].age = _age;\n    }\n\n    function add_pharmacy(address _addr, string memory _password) public {\n        USERS[_addr].addr = _addr;\n        USERS[_addr].password = _password;\n        USERS[_addr].categ = 2;\n    }\n\n    function add_patient(\n        string memory _aadhar,\n        string memory _name,\n        string memory _email,\n        uint _age,\n        string memory _password\n    ) public {\n        // get available address and private key for the patient\n        i = 0;\n        while (i < addresses.length) {\n            if (compare(\"\", USERS[addresses[i]].password)) {\n                break;\n            }\n            i++;\n        }\n\n        require(i < addresses.length, \"Out of possible addresses\");\n        USERS[addresses[i]].addr = addresses[i];\n        USERS[addresses[i]].password = _password;\n        USERS[addresses[i]].categ = 0;\n\n        patientCount++;\n        aadhar.push(_aadhar);\n        PATIENTS[addresses[i]].aadhar = _aadhar;\n        PATIENTS[addresses[i]].name = _name;\n        PATIENTS[addresses[i]].age = _age;\n        PATIENTS[addresses[i]].email = _email;\n        PATIENTS[addresses[i]].recordSize = 0;\n\n        set_i(i);\n    }\n\n    uint i;\n\n    function set_i(uint x) private {\n        i = x;\n    }\n\n    // to get address and private key of the patient newly created\n    function get_addressKey() public view returns (address, string memory) {\n        return (addresses[i], private_keys[i]);\n    }\n\n    function getPassword() public view returns (string memory) {\n        address _addr = msg.sender;\n        return USERS[_addr].password;\n    }\n\n    function getRole() public view returns (uint) {\n        address _addr = msg.sender;\n        return USERS[_addr].categ;\n    }\n\n    function get_existing_aadhars() public view returns (string[] memory) {\n        return aadhar;\n    }\n\n    function login(string memory _password) public view returns (uint) {\n        address _addr = msg.sender;\n        // check if account with given address exists\n        require(\n            compare(\"\", USERS[_addr].password),\n            \"Account not found. Register first\"\n        );\n        // check if msg.sender if the owner of the account\n        require(\n            USERS[_addr].addr == msg.sender,\n            \"You cannot login to this account\"\n        );\n        // check if the stored and the inputted password match\n        require(\n            compare(USERS[_addr].password, _password),\n            \"Password does not match\"\n        );\n        // return category of the user\n        return USERS[_addr].categ;\n    }\n\n    function get_patient(\n        address _addr\n    ) public view returns (string memory, uint, string memory email) {\n        return (\n            PATIENTS[_addr].name,\n            PATIENTS[_addr].age,\n            PATIENTS[_addr].email\n        );\n    }\n\n    function get_doctor(\n        address _addr\n    )\n        public\n        view\n        returns (\n            address,\n            string memory,\n            string memory,\n            string memory,\n            string memory,\n            uint\n        )\n    {\n        return (\n            DOCTORS[_addr].addr,\n            DOCTORS[_addr].name,\n            DOCTORS[_addr].email,\n            DOCTORS[_addr].hospital,\n            DOCTORS[_addr].specialization,\n            DOCTORS[_addr].age\n        );\n    }\n\n    /* ACCESS MANAGEMENT MODULE */\n\n    function permit_access(address addr) public payable {\n        DOCTORS[addr].patientAccessList.push(msg.sender);\n        PATIENTS[msg.sender].doctorAccessList.push(addr);\n    }\n\n    function revoke_access(address daddr) public payable {\n        address patientAddr = msg.sender;\n        address doctorAddr = daddr;\n\n        // remove patient's address from within the doctor's accesslist\n        address[] storage arr = DOCTORS[doctorAddr].patientAccessList;\n        remove_element_from_array(arr, patientAddr);\n\n        //remove doctor's address from within the patients's accesslist\n        arr = PATIENTS[patientAddr].doctorAccessList;\n        remove_element_from_array(arr, doctorAddr);\n\n        // payable(msg.sender).transfer(2 ether);\n    }\n\n    function remove_element_from_array(\n        address[] storage arr,\n        address addr\n    ) private {\n        // find index of this addr in the array\n        bool found = false;\n        uint target_index = 0;\n        for (uint j = 0; j < arr.length; j++) {\n            if (arr[j] == addr) {\n                found = true;\n                target_index = j;\n                break;\n            }\n        }\n        // if not found, revert\n        if (!found) revert(\"Address not found in list\");\n        else {\n            if (arr.length == 1) arr.pop();\n            else {\n                arr[target_index] = arr[arr.length - 1];\n                arr.pop();\n            }\n        }\n    }\n\n    function get_permitted_doctors() public view returns (address[] memory) {\n        address addr = msg.sender;\n        return PATIENTS[addr].doctorAccessList;\n    }\n\n    function get_accessible_patients() public view returns (address[] memory) {\n        address addr = msg.sender;\n        return DOCTORS[addr].patientAccessList;\n    }\n\n    /* DATA EXCHANGE MODULE */\n\n    function add_patient_record(\n        address patientAddr,\n        string memory _date,\n        string memory _diagnosis,\n        string memory _description,\n        string memory _prescription,\n        string[] memory _files\n    ) public {\n        patient storage p = PATIENTS[patientAddr];\n\n        p.recordMap[p.recordSize] = record(\n            _date,\n            msg.sender,\n            _diagnosis,\n            _description,\n            _prescription,\n            _files\n        );\n        p.recordSize++;\n\n        if (!compare(\"\", _prescription)) {\n            PHARMACY[patientAddr].push(\n                prescription(_date, msg.sender, _prescription, \"Pending\")\n            );\n        }\n    }\n\n    function get_patient_records(\n        address patientAddr\n    ) public view returns (record[] memory) {\n        record[] memory records = new record[](\n            PATIENTS[patientAddr].recordSize\n        );\n        for (uint k = 0; k < PATIENTS[patientAddr].recordSize; k++) {\n            records[k] = PATIENTS[patientAddr].recordMap[k];\n        }\n        return records;\n    }\n\n    function getAllDoctors() public view returns (doctor[] memory) {\n        doctor[] memory doctorsList = new doctor[](doctorCount);\n        uint docCount = 0;\n        for (uint j = 0; j < addresses.length; j++) {\n            if (USERS[addresses[j]].categ == 1) {\n                doctorsList[docCount] = DOCTORS[addresses[j]];\n                docCount++;\n            }\n        }\n        return doctorsList;\n    }\n\n    /* PHARMACY MODULE */\n\n    // get history of all prescriptions for given patient\n    function get_prescriptions(\n        address _patient\n    ) public view returns (prescription[] memory) {\n        return PHARMACY[_patient];\n    }\n\n    // get pending prescriptions for given patient\n    function get_pending_prescriptions(\n        address _patient\n    ) public view returns (prescription[] memory) {\n        prescription[] memory requests = new prescription[](\n            get_count(\"Pending\", _patient)\n        );\n        uint k = 0;\n        for (uint j = 0; j < PHARMACY[_patient].length; j++) {\n            if (compare(PHARMACY[_patient][j].status, \"Pending\")) {\n                requests[k] = PHARMACY[_patient][j];\n                k++;\n            }\n        }\n        return requests;\n    }\n\n    // resolve a prescription for a patient\n    function resolve_prescription(address _patient, uint _index) public {\n        uint pos = find_actual_index(_patient, _index, \"Pending\");\n        PHARMACY[_patient][pos].status = \"Resolved\";\n    }\n}\n",
  "sourcePath": "F:\\project\\distributed-healthcare-system-main\\contracts\\Health.sol",
  "compiler": {
    "name": "solc",
    "version": "0.8.0+commit.c7dfd78e.Emscripten.clang"
  },
  "schemaVersion": "3.4.15",
  "updatedAt": "2023-11-17T16:21:16.393Z",
  "networkType": "ethereum",
  "devdoc": {
    "kind": "dev",
    "methods": {},
    "version": 1
  },
  "userdoc": {
    "kind": "user",
    "methods": {},
    "version": 1
  }
}